:03000000020913DF
:0C091300787FE4F6D8FD7581070208002B
:1008000012091F1208967F817E001208FB7F411299
:1008100009297F6C1209297F491209297F201209B1
:10082000297F201209297F201209297F53120929C3
:100830007F551209297F421209297F481209297F11
:10084000411209297F4E1209297F201209297FC0F0
:100850007E001208FB7F4D1209297F411209297F72
:100860004A1209297F491209297F441209297F2048
:100870001209297F411209297F481209297F4D1247
:1008800009297F411209297F441209297F20120971
:060890002912090580FE9B
:0A091F00E4F580F590F5A0F5B02294
:0808D4008FA0D2917F967E00F7
:1008DC00E4FDFCC3ED9FEE6480F8EC648098500757
:0708EC000DBD00010C80ECC2
:0108F30022E2
:0A092900D2901208D4C2910208DC3B
:0708F4001208DC7F307E00DA
:0A08FB00C2901208D4C2910208DC7A
:100896007F987E3A1208F47F947E111208F47F2C1A
:1008A6007E011208DC7F301E1208FB7F8A7E021250
:1008B60008DC7F387E001208FB7F0C7E001208FBE6
:0E08C6007F017E001208FB7F067E000208FB09
:0E0905007F027E001208FB7FDC7E050208DC0C
:00000001FF
